{
  "contractName": "CommunityChest",
  "abi": [
    {
      "constant": false,
      "inputs": [],
      "name": "withdraw",
      "outputs": [],
      "payable": false,
      "stateMutability": "nonpayable",
      "type": "function"
    },
    {
      "constant": false,
      "inputs": [
        {
          "name": "amount",
          "type": "uint256"
        }
      ],
      "name": "deposit",
      "outputs": [],
      "payable": true,
      "stateMutability": "payable",
      "type": "function"
    },
    {
      "constant": true,
      "inputs": [],
      "name": "getBalance",
      "outputs": [
        {
          "name": "",
          "type": "uint256"
        }
      ],
      "payable": false,
      "stateMutability": "view",
      "type": "function"
    }
  ],
  "bytecode": "0x608060405234801561001057600080fd5b5060f28061001f6000396000f3fe60806040526004361060305760003560e01c806312065fe01460355780633ccfd60b146059578063b6b55f2514606d575b600080fd5b348015604057600080fd5b5060476087565b60408051918252519081900360200190f35b348015606457600080fd5b50606b608c565b005b606b60048036036020811015608157600080fd5b503560bb565b303190565b6040513390303180156108fc02916000818181858888f1935050505015801560b8573d6000803e3d6000fd5b50565b80341460b857600080fdfea165627a7a72305820b4c28160dffc405a2c4f22941093c7c7578ad25889a03e968372a63f36467c2b0029",
  "source": "pragma solidity >=0.4.21 <0.6.0;\n\ncontract CommunityChest {\n    function withdraw() public {\n        msg.sender.transfer(address(this).balance);\n    }\n\n    function deposit(uint256 amount) payable public {\n        require(msg.value == amount);\n        // nothing else to do!\n    }\n\n    function getBalance() public view returns (uint256) {\n        return address(this).balance;\n    }\n}\n",
  "sourcePath": "/Users/amit/eth-todo-list/contracts/CommunityChest.sol",
  "compiler": {
    "name": "solc",
    "version": "0.5.8+commit.23d335f2.Emscripten.clang"
  },
  "schemaVersion": "3.0.11",
  "updatedAt": "2019-12-21T05:03:49.486Z",
  "devdoc": {
    "methods": {}
  },
  "userdoc": {
    "methods": {}
  }
}